{
  "_format": "hh-sol-artifact-1",
  "contractName": "Raffle",
  "sourceName": "contracts/Raffle.sol",
  "abi": [
    {
      "inputs": [
        {
          "internalType": "address",
          "name": "vrfCoordinatorV2",
          "type": "address"
        },
        {
          "internalType": "uint256",
          "name": "entranceFee",
          "type": "uint256"
        },
        {
          "internalType": "bytes32",
          "name": "gasLane",
          "type": "bytes32"
        },
        {
          "internalType": "uint64",
          "name": "subscriptionId",
          "type": "uint64"
        },
        {
          "internalType": "uint32",
          "name": "callbackGasLimit",
          "type": "uint32"
        },
        {
          "internalType": "uint256",
          "name": "interval",
          "type": "uint256"
        }
      ],
      "stateMutability": "nonpayable",
      "type": "constructor"
    },
    {
      "inputs": [
        {
          "internalType": "address",
          "name": "have",
          "type": "address"
        },
        {
          "internalType": "address",
          "name": "want",
          "type": "address"
        }
      ],
      "name": "OnlyCoordinatorCanFulfill",
      "type": "error"
    },
    {
      "inputs": [],
      "name": "Raffle__NotEnoughETHEntered",
      "type": "error"
    },
    {
      "inputs": [],
      "name": "Raffle__NotOpen",
      "type": "error"
    },
    {
      "inputs": [],
      "name": "Raffle__TransferFailed",
      "type": "error"
    },
    {
      "inputs": [
        {
          "internalType": "uint256",
          "name": "currentBalance",
          "type": "uint256"
        },
        {
          "internalType": "uint256",
          "name": "numPlayers",
          "type": "uint256"
        },
        {
          "internalType": "uint256",
          "name": "raffleState",
          "type": "uint256"
        }
      ],
      "name": "Raffle__UpKeenNotNeeded",
      "type": "error"
    },
    {
      "anonymous": false,
      "inputs": [
        {
          "indexed": true,
          "internalType": "address",
          "name": "player",
          "type": "address"
        }
      ],
      "name": "RaffleEnter",
      "type": "event"
    },
    {
      "anonymous": false,
      "inputs": [
        {
          "indexed": true,
          "internalType": "uint256",
          "name": "requestId",
          "type": "uint256"
        }
      ],
      "name": "RequestedRaffleWinner",
      "type": "event"
    },
    {
      "anonymous": false,
      "inputs": [
        {
          "indexed": true,
          "internalType": "address",
          "name": "winner",
          "type": "address"
        }
      ],
      "name": "WinnerPicked",
      "type": "event"
    },
    {
      "inputs": [
        {
          "internalType": "bytes",
          "name": "",
          "type": "bytes"
        }
      ],
      "name": "checkUpkeep",
      "outputs": [
        {
          "internalType": "bool",
          "name": "upkeepNeeded",
          "type": "bool"
        },
        {
          "internalType": "bytes",
          "name": "",
          "type": "bytes"
        }
      ],
      "stateMutability": "view",
      "type": "function"
    },
    {
      "inputs": [],
      "name": "enterRaffle",
      "outputs": [],
      "stateMutability": "payable",
      "type": "function"
    },
    {
      "inputs": [],
      "name": "getEntranceFee",
      "outputs": [
        {
          "internalType": "uint256",
          "name": "",
          "type": "uint256"
        }
      ],
      "stateMutability": "view",
      "type": "function"
    },
    {
      "inputs": [],
      "name": "getLatestTimestamp",
      "outputs": [
        {
          "internalType": "uint256",
          "name": "",
          "type": "uint256"
        }
      ],
      "stateMutability": "view",
      "type": "function"
    },
    {
      "inputs": [],
      "name": "getNumWords",
      "outputs": [
        {
          "internalType": "uint256",
          "name": "",
          "type": "uint256"
        }
      ],
      "stateMutability": "pure",
      "type": "function"
    },
    {
      "inputs": [],
      "name": "getNumberOfPlayers",
      "outputs": [
        {
          "internalType": "uint256",
          "name": "",
          "type": "uint256"
        }
      ],
      "stateMutability": "view",
      "type": "function"
    },
    {
      "inputs": [
        {
          "internalType": "uint256",
          "name": "index",
          "type": "uint256"
        }
      ],
      "name": "getPlayer",
      "outputs": [
        {
          "internalType": "address",
          "name": "",
          "type": "address"
        }
      ],
      "stateMutability": "view",
      "type": "function"
    },
    {
      "inputs": [],
      "name": "getRaffleState",
      "outputs": [
        {
          "internalType": "enum Raffle.RaffleState",
          "name": "",
          "type": "uint8"
        }
      ],
      "stateMutability": "view",
      "type": "function"
    },
    {
      "inputs": [],
      "name": "getRecentWinner",
      "outputs": [
        {
          "internalType": "address",
          "name": "",
          "type": "address"
        }
      ],
      "stateMutability": "view",
      "type": "function"
    },
    {
      "inputs": [],
      "name": "getRequestConfirmations",
      "outputs": [
        {
          "internalType": "uint256",
          "name": "",
          "type": "uint256"
        }
      ],
      "stateMutability": "pure",
      "type": "function"
    },
    {
      "inputs": [
        {
          "internalType": "bytes",
          "name": "",
          "type": "bytes"
        }
      ],
      "name": "performUpkeep",
      "outputs": [],
      "stateMutability": "nonpayable",
      "type": "function"
    },
    {
      "inputs": [
        {
          "internalType": "uint256",
          "name": "requestId",
          "type": "uint256"
        },
        {
          "internalType": "uint256[]",
          "name": "randomWords",
          "type": "uint256[]"
        }
      ],
      "name": "rawFulfillRandomWords",
      "outputs": [],
      "stateMutability": "nonpayable",
      "type": "function"
    },
    {
      "inputs": [],
      "name": "requestRandomWinner",
      "outputs": [],
      "stateMutability": "nonpayable",
      "type": "function"
    }
  ],
  "bytecode": "0x6101606040523480156200001257600080fd5b50604051620017f7380380620017f78339818101604052810190620000389190620001ad565b858073ffffffffffffffffffffffffffffffffffffffff1660808173ffffffffffffffffffffffffffffffffffffffff1660601b81525050508573ffffffffffffffffffffffffffffffffffffffff166101408173ffffffffffffffffffffffffffffffffffffffff1660601b815250508460a081815250508360c081815250508267ffffffffffffffff1660e08167ffffffffffffffff1660c01b815250508163ffffffff166101008163ffffffff1660e01b815250506000600160146101000a81548160ff02191690836001811115620001195762000118620002b5565b5b0217905550426002819055508061012081815250505050505050506200036b565b6000815190506200014b81620002e9565b92915050565b600081519050620001628162000303565b92915050565b60008151905062000179816200031d565b92915050565b600081519050620001908162000337565b92915050565b600081519050620001a78162000351565b92915050565b60008060008060008060c08789031215620001cd57620001cc620002e4565b5b6000620001dd89828a016200013a565b9650506020620001f089828a0162000168565b95505060406200020389828a0162000151565b94505060606200021689828a0162000196565b93505060806200022989828a016200017f565b92505060a06200023c89828a0162000168565b9150509295509295509295565b6000620002568262000267565b9050919050565b6000819050919050565b600073ffffffffffffffffffffffffffffffffffffffff82169050919050565b6000819050919050565b600063ffffffff82169050919050565b600067ffffffffffffffff82169050919050565b7f4e487b7100000000000000000000000000000000000000000000000000000000600052602160045260246000fd5b600080fd5b620002f48162000249565b81146200030057600080fd5b50565b6200030e816200025d565b81146200031a57600080fd5b50565b620003288162000287565b81146200033457600080fd5b50565b620003428162000291565b81146200034e57600080fd5b50565b6200035c81620002a1565b81146200036857600080fd5b50565b60805160601c60a05160c05160e05160c01c6101005160e01c610120516101405160601c611417620003e06000396000610636015260006107d9015260006106b601526000610693015260006106720152600081816102e601526103e3015260008181610323015261037701526114176000f3fe6080604052600436106100c25760003560e01c8063522a1f0b1161007f5780636e04ff0d116100595780636e04ff0d14610211578063e55ae4e81461024f578063f43b52cb1461028c578063fd6673f5146102b7576100c2565b8063522a1f0b146101a457806353a2c19a146101bb5780635f1b0fd8146101e6576100c2565b806309bc33a7146100c7578063115cbaf5146100f25780631fe543e31461011d5780632cfcc539146101465780634585e33b14610150578063473f1ddc14610179575b600080fd5b3480156100d357600080fd5b506100dc6102e2565b6040516100e9919061101d565b60405180910390f35b3480156100fe57600080fd5b5061010761030a565b6040516101149190611002565b60405180910390f35b34801561012957600080fd5b50610144600480360381019061013f9190610df6565b610321565b005b61014e6103e1565b005b34801561015c57600080fd5b5061017760048036038101906101729190610d06565b610550565b005b34801561018557600080fd5b5061018e6105de565b60405161019b9190610f3b565b60405180910390f35b3480156101b057600080fd5b506101b9610608565b005b3480156101c757600080fd5b506101d061077b565b6040516101dd919061101d565b60405180910390f35b3480156101f257600080fd5b506101fb61078a565b604051610208919061101d565b60405180910390f35b34801561021d57600080fd5b5061023860048036038101906102339190610d53565b610797565b604051610246929190610f7f565b60405180910390f35b34801561025b57600080fd5b5061027660048036038101906102719190610d9c565b610843565b6040516102839190610f3b565b60405180910390f35b34801561029857600080fd5b506102a161088a565b6040516102ae919061101d565b60405180910390f35b3480156102c357600080fd5b506102cc610894565b6040516102d9919061101d565b60405180910390f35b60007f0000000000000000000000000000000000000000000000000000000000000000905090565b6000600160149054906101000a900460ff16905090565b7f000000000000000000000000000000000000000000000000000000000000000073ffffffffffffffffffffffffffffffffffffffff163373ffffffffffffffffffffffffffffffffffffffff16146103d357337f00000000000000000000000000000000000000000000000000000000000000006040517f1cf993f40000000000000000000000000000000000000000000000000000000081526004016103ca929190610f56565b60405180910390fd5b6103dd82826108a0565b5050565b7f000000000000000000000000000000000000000000000000000000000000000034101561043b576040517fbd4e069500000000000000000000000000000000000000000000000000000000815260040160405180910390fd5b6000600181111561044f5761044e6112f7565b5b600160149054906101000a900460ff166001811115610471576104706112f7565b5b146104a8576040517f1425571c00000000000000000000000000000000000000000000000000000000815260040160405180910390fd5b6000339080600181540180825580915050600190039060005260206000200160009091909190916101000a81548173ffffffffffffffffffffffffffffffffffffffff021916908373ffffffffffffffffffffffffffffffffffffffff1602179055503373ffffffffffffffffffffffffffffffffffffffff167f0805e1d667bddb8a95f0f09880cf94f403fb596ce79928d9f29b74203ba284d460405160405180910390a2565b600061056a60405180602001604052806000815250610797565b509050806105d95747600080549050600160149054906101000a900460ff16600181111561059b5761059a6112f7565b5b6040517fccedd3220000000000000000000000000000000000000000000000000000000081526004016105d093929190611038565b60405180910390fd5b505050565b6000600160009054906101000a900473ffffffffffffffffffffffffffffffffffffffff16905090565b60018060146101000a81548160ff0219169083600181111561062d5761062c6112f7565b5b021790555060007f000000000000000000000000000000000000000000000000000000000000000073ffffffffffffffffffffffffffffffffffffffff16635d3b1d307f00000000000000000000000000000000000000000000000000000000000000007f000000000000000000000000000000000000000000000000000000000000000060037f000000000000000000000000000000000000000000000000000000000000000060016040518663ffffffff1660e01b81526004016106f7959493929190610faf565b602060405180830381600087803b15801561071157600080fd5b505af1158015610725573d6000803e3d6000fd5b505050506040513d601f19601f820116820180604052508101906107499190610dc9565b9050807fcd6e45c8998311cab7e9d4385596cac867e20a0587194b954fa3a731c93ce78b60405160405180910390a250565b6000600163ffffffff16905090565b6000600361ffff16905090565b6000606060008060018111156107b0576107af6112f7565b5b600160149054906101000a900460ff1660018111156107d2576107d16112f7565b5b14905060007f0000000000000000000000000000000000000000000000000000000000000000600254426108069190611118565b119050600080600080549050119050600080471190508380156108265750825b801561082f5750815b80156108385750805b955050505050915091565b600080828154811061085857610857611326565b5b9060005260206000200160009054906101000a900473ffffffffffffffffffffffffffffffffffffffff169050919050565b6000600254905090565b60008080549050905090565b60008080549050826000815181106108bb576108ba611326565b5b60200260200101516108cd9190611268565b905060008082815481106108e4576108e3611326565b5b9060005260206000200160009054906101000a900473ffffffffffffffffffffffffffffffffffffffff16905080600160006101000a81548173ffffffffffffffffffffffffffffffffffffffff021916908373ffffffffffffffffffffffffffffffffffffffff1602179055506000600160146101000a81548160ff02191690836001811115610978576109776112f7565b5b0217905550600067ffffffffffffffff81111561099857610997611355565b5b6040519080825280602002602001820160405280156109c65781602001602082028036833780820191505090505b50600090805190602001906109dc929190610ad1565b504260028190555060008173ffffffffffffffffffffffffffffffffffffffff1647604051610a0a90610f26565b60006040518083038185875af1925050503d8060008114610a47576040519150601f19603f3d011682016040523d82523d6000602084013e610a4c565b606091505b5050905080610a87576040517fa1d04b3900000000000000000000000000000000000000000000000000000000815260040160405180910390fd5b8173ffffffffffffffffffffffffffffffffffffffff167f5b690ec4a06fe979403046eaeea5b3ce38524683c3001f662c8b5a829632f7df60405160405180910390a25050505050565b828054828255906000526020600020908101928215610b4a579160200282015b82811115610b495782518260006101000a81548173ffffffffffffffffffffffffffffffffffffffff021916908373ffffffffffffffffffffffffffffffffffffffff16021790555091602001919060010190610af1565b5b509050610b579190610b5b565b5090565b5b80821115610b74576000816000905550600101610b5c565b5090565b6000610b8b610b8684611094565b61106f565b90508083825260208201905082856020860282011115610bae57610bad61138e565b5b60005b85811015610bde5781610bc48882610cdc565b845260208401935060208301925050600181019050610bb1565b5050509392505050565b6000610bfb610bf6846110c0565b61106f565b905082815260208101848484011115610c1757610c16611393565b5b610c228482856111f5565b509392505050565b600082601f830112610c3f57610c3e611389565b5b8135610c4f848260208601610b78565b91505092915050565b60008083601f840112610c6e57610c6d611389565b5b8235905067ffffffffffffffff811115610c8b57610c8a611384565b5b602083019150836001820283011115610ca757610ca661138e565b5b9250929050565b600082601f830112610cc357610cc2611389565b5b8135610cd3848260208601610be8565b91505092915050565b600081359050610ceb816113ca565b92915050565b600081519050610d00816113ca565b92915050565b60008060208385031215610d1d57610d1c61139d565b5b600083013567ffffffffffffffff811115610d3b57610d3a611398565b5b610d4785828601610c58565b92509250509250929050565b600060208284031215610d6957610d6861139d565b5b600082013567ffffffffffffffff811115610d8757610d86611398565b5b610d9384828501610cae565b91505092915050565b600060208284031215610db257610db161139d565b5b6000610dc084828501610cdc565b91505092915050565b600060208284031215610ddf57610dde61139d565b5b6000610ded84828501610cf1565b91505092915050565b60008060408385031215610e0d57610e0c61139d565b5b6000610e1b85828601610cdc565b925050602083013567ffffffffffffffff811115610e3c57610e3b611398565b5b610e4885828601610c2a565b9150509250929050565b610e5b8161114c565b82525050565b610e6a8161115e565b82525050565b610e798161116a565b82525050565b6000610e8a826110f1565b610e9481856110fc565b9350610ea4818560208601611204565b610ead816113a2565b840191505092915050565b610ec1816111e3565b82525050565b6000610ed460008361110d565b9150610edf826113b3565b600082019050919050565b610ef381611187565b82525050565b610f02816111b5565b82525050565b610f11816111bf565b82525050565b610f20816111cf565b82525050565b6000610f3182610ec7565b9150819050919050565b6000602082019050610f506000830184610e52565b92915050565b6000604082019050610f6b6000830185610e52565b610f786020830184610e52565b9392505050565b6000604082019050610f946000830185610e61565b8181036020830152610fa68184610e7f565b90509392505050565b600060a082019050610fc46000830188610e70565b610fd16020830187610f17565b610fde6040830186610eea565b610feb6060830185610f08565b610ff86080830184610f08565b9695505050505050565b60006020820190506110176000830184610eb8565b92915050565b60006020820190506110326000830184610ef9565b92915050565b600060608201905061104d6000830186610ef9565b61105a6020830185610ef9565b6110676040830184610ef9565b949350505050565b600061107961108a565b90506110858282611237565b919050565b6000604051905090565b600067ffffffffffffffff8211156110af576110ae611355565b5b602082029050602081019050919050565b600067ffffffffffffffff8211156110db576110da611355565b5b6110e4826113a2565b9050602081019050919050565b600081519050919050565b600082825260208201905092915050565b600081905092915050565b6000611123826111b5565b915061112e836111b5565b92508282101561114157611140611299565b5b828203905092915050565b600061115782611195565b9050919050565b60008115159050919050565b6000819050919050565b6000819050611182826113b6565b919050565b600061ffff82169050919050565b600073ffffffffffffffffffffffffffffffffffffffff82169050919050565b6000819050919050565b600063ffffffff82169050919050565b600067ffffffffffffffff82169050919050565b60006111ee82611174565b9050919050565b82818337600083830152505050565b60005b83811015611222578082015181840152602081019050611207565b83811115611231576000848401525b50505050565b611240826113a2565b810181811067ffffffffffffffff8211171561125f5761125e611355565b5b80604052505050565b6000611273826111b5565b915061127e836111b5565b92508261128e5761128d6112c8565b5b828206905092915050565b7f4e487b7100000000000000000000000000000000000000000000000000000000600052601160045260246000fd5b7f4e487b7100000000000000000000000000000000000000000000000000000000600052601260045260246000fd5b7f4e487b7100000000000000000000000000000000000000000000000000000000600052602160045260246000fd5b7f4e487b7100000000000000000000000000000000000000000000000000000000600052603260045260246000fd5b7f4e487b7100000000000000000000000000000000000000000000000000000000600052604160045260246000fd5b600080fd5b600080fd5b600080fd5b600080fd5b600080fd5b600080fd5b6000601f19601f8301169050919050565b50565b600281106113c7576113c66112f7565b5b50565b6113d3816111b5565b81146113de57600080fd5b5056fea2646970667358221220d9d5b61f0007db76f16acabb0f84e32a613fc53453a5ee1153a46bff60147b0264736f6c63430008070033",
  "linkReferences": {},
  "deployedLinkReferences": {}
}